:020000040000FA
:10000000000002281B30AE000230AF00803000003C
:100010000000AF210000000083120000C0002F0884
:10002000BF001D30C1000230C200831200003F0833
:10003000C3004008C400FF30BF07031CC0034408CE
:10004000430403199A2804304107C300C401C40DB6
:100050004208C4074308AE004408AF0080300000E7
:100060000000AF210000000083120000C6002F082E
:10007000C5004108AE004208AF008030000000001B
:10008000AF210000000083120000C800C4002F0848
:10009000C300C70002304107C300C401C40D4208B9
:1000A000C4074308AE004408AF00803000000000E1
:1000B000AF210000000083120000C400CA002F0816
:1000C000C900C300831200004508C9004608CA00E1
:1000D000FF30C507031CC6034A08490403199328C7
:1000E0004708AE004808AF008030000000009C21A7
:1000F0000000000083120000C900430883120313AC
:100100008400831383120000441883174908831264
:100110000313800083120000C70A0319C80AC30A28
:100120000319C40A6228063083120000C1070318AD
:10013000C20A152800000000F7290800B1002F08A6
:10014000B2005908580457045604031DAD28003066
:10015000D7000330D600D801D901580EF039B600C7
:10016000570EB5000F39B604B506560EB4000F3958
:10017000B504B406B3010310B30DB40DB50DB60D3F
:100180003308D6063408D7063508D8063608D90607
:100190000310590CB400580CB300B501B601330874
:1001A000D6063408D7060030D8060030D906590ED6
:1001B000F039B600580EB5000F39B604B506570E23
:1001C000B4000F39B504B406560EB3000F39B404A9
:1001D000B3060310B30DB40DB50DB60D3308D60636
:1001E0003408D7063508D8063608D9063208B300D1
:1001F000B401B5013108B200B3020030031C350F61
:10020000B4020130B307B201B20D3408B207B40131
:10021000B5013308A9003208AA000030AB00003055
:10022000AC005608AD005708AE005808AF0059089A
:100230002521B5002F08B4002E08B3002D08B20008
:10024000B60031083607B100080083120000CE0066
:100250002F08CD002E08CC002D08CB002C08D20092
:100260002B08D1002A08D0002908CF00D301D401DF
:100270008312000052088039031D0130D500550853
:10028000031D65290310CF0DD00DD10DD20D5208DD
:100290004E02031D552951084D02031D55295008D2
:1002A0004C02031D55294F084B0203185F29031008
:1002B00083120000D20CD10CD00CCF0C6529831214
:1002C0000000D40A5408D3003829831200005208D1
:1002D0004E02031D752951084D02031D7529500852
:1002E0004C02031D75294F084B02031C87298312FA
:1002F00000004F08CB025008031C500FCC025108DD
:10030000031C510FCD025208031C520FCE020310E2
:1003100083120000D20CD10CD00CCF0C5308D400A7
:10032000D3035408031D65294B08AD004C08AE00EB
:100330004D08AF004E080800003A0319A329803A7F
:100340000319AA2900342E08840083132F18831759
:10035000000808002F088A002E0882000800003AD2
:100360000319B729803A0319C129AF0100342E08B7
:10037000840083132F1883170008AF00840A000835
:10038000080000000000AA21AD00AE0FAF03AF0AC5
:1003900000000000AA21AC002D08AF002C080800C6
:1003A000B8002F08B700B901BA0138083A02031D96
:1003B000DB29370839020318F629FB30BB0004306B
:1003C000BC00FF303B07BD00FF30BE003C080318F7
:1003D0003C0FBE073D08BB003E08BC003E083D0484
:1003E000031DE129B90A0319BA0AD5290800083002
:1003F00083168500831285010930AF0000309E20EE
:100400000930AF0000309E20831205106430AF0029
:100410000030D021B00183120518B00A3009B000B5
:10042000300C031C0510031805146430AF000030B5
:10043000D021FC2908000234003429340234563417
:100440000034043400342D3402345A34003401347E
:0C04500000340034003400340034003468
:02400E00D73F9A
:00000001FF
