:020000040000FA
:100000000000AF288316A4007F08A50083122F08E4
:100010002E042D042C04031D13280030AD000330E2
:10002000AC00AE01AF0183122E0EF0398316A90089
:1000300083122D0E8316A8000F39A904A806831277
:100040002C0E8316A7000F39A804A706A6010310DB
:10005000A60DA70DA80DA90D26088312AC068316C0
:1000600027088312AD06831628088312AE0683166E
:1000700029088312AF0603102F0C8316A7008312E2
:100080002E0C8316A600A801A90126088312AC062F
:10009000831627088312AD060030AE060030AF0687
:1000A0002F0EF0398316A90083122E0E8316A80096
:1000B0000F39A904A80683122D0E8316A7000F3945
:1000C000A804A70683122C0E8316A6000F39A704D6
:1000D000A6060310A60DA70DA80DA90D26088312CC
:1000E000AC06831627088312AD06831628088312F0
:1000F000AE06831629088312AF0683162508A600CC
:10010000A701A8012408A500A6020030031C280F9F
:10011000A7020130A607A501A50D2708A507A7017D
:10012000A8012608F9002508FA000030FB0000307D
:10013000FC0083122C08FD002D08FE002E08FF0095
:100140002F085D228316A8007F08A7007E08A6005E
:100150007D08A500A90024082907A4000800333061
:10016000FE000330FF00803000000000E7220000A6
:10017000000083120000A1007F08A0003530A2001B
:100180000330A300831200002008A4002108A5006A
:10019000FF30A007031CA1032508240403194729E5
:1001A00004302207A400A501A50D2308A5072408F3
:1001B000FE002508FF00803000000000E72200005C
:1001C000000083120000A7007F08A6002208FE009E
:1001D0002308FF00803000000000E722000000003C
:1001E00083120000A900A5007F08A400A800023027
:1001F0002207A400A501A50D2308A5072408FE00D9
:100200002508FF00803000000000E7220000000009
:1002100083120000A500AB007F08AA00A40083128F
:1002200000002608AA002708AB00FF30A607031C21
:10023000A7032B082A04031940292808FE002908CF
:10024000FF00803000000000D42200000000831274
:100250000000AA002408831203138400831383126E
:100260000000251883172A088312031380008312C5
:100270000000A80A0319A90AA40A0319A50A0F294C
:10028000063083120000A2070318A30AC228000048
:100290000000DE2908008316AA007F08AC007E0853
:1002A000AB002C04031D94290A302A020318DD290F
:1002B000013083128A00633083162A07031C6229E7
:1002C00083128A0A82006D297029742978297C2971
:1002D0008029842988298C29902983128501DD2988
:1002E000013083128500DD29023083128500DD296B
:1002F000033083128500DD29043083128500DD2957
:10030000053083128500DD29063083128500DD2942
:10031000073083128500DD29103083128500DD2926
:10032000113083128500DD2983162B08013A031D45
:10033000DD292C08003A031DDD290A302A020318A2
:10034000DD29013083128A00AC3083162A07031C92
:10035000AB2983128A0A8200B629BA29BE29C2298A
:10036000C629CA29CE29D229D629DA2920308312D2
:100370008500DD29213083128500DD29223083129A
:100380008500DD29233083128500DD292430831286
:100390008500DD29253083128500DD292630831272
:1003A0008500DD29273083128500DD293030831256
:1003B0008500DD293130831285000800083083165E
:1003C0008500831285018316A001A1010930FF0079
:1003D000003002208316A2000930FF000030022006
:1003E0008316A3008312851DE6298316A00A03192C
:1003F000A10A8312851D132A0030FE000030FF0081
:10040000831622084B210530FF00003008230130FD
:10041000FE000030FF00831623084B210530FF004B
:1004200000300823F92983162008103A031DE62915
:100430002108003A031DE6290030FE000030FF00CD
:1004400009304B21C830FF00003008230130FE0086
:100450000030FF0009304B21C830FF000030082376
:100460000030FE000030FF0009304B21C830FF0093
:10047000003008230130FE000030FF0009304B211E
:10048000C830FF00003008230030FE000030FF00BD
:1004900009304B21C830FF00003008230130FE0036
:1004A0000030FF0009304B21C830FF000030082326
:1004B0008316A001A101E629080083160000B800F8
:1004C0007F08B7007E08B6007D08B5007C08BC0038
:1004D0007B08BB007A08BA007908B900BD01BE01EB
:1004E000831600003C088039031D0130BF003F081F
:1004F000031D9D2A0310B90DBA0DBB0DBC0D3C08A0
:100500003802031D8D2A3B083702031D8D2A3A0845
:100510003602031D8D2A390835020318972A031065
:1005200083160000BC0CBB0CBA0CB90C9D2A8316B8
:100530000000BE0A3E08BD00702A831600003C0879
:100540003802031DAD2A3B083702031DAD2A3A08C5
:100550003602031DAD2A39083502031CBF2A831653
:1005600000003908B5023A08031C3A0FB6023B08EE
:10057000031C3B0FB7023C08031C3C0FB8020310DE
:1005800083160000BC0CBB0CBA0CB90C3D08BE00B5
:10059000BD033E08031D9D2A3508FD003608FE00F8
:1005A0003708FF0038080800003A0319DB2A803AB0
:1005B0000319E22A00347E08840083137F1883170E
:1005C000000808007F088A007E0882000800003AC0
:1005D0000319EF2A803A0319F92AFF0100347E0833
:1005E000840083137F1883170008FF00840A000823
:1005F000080000000000E222FD00FE0FFF03FF0ADA
:1006000000000000E222FC007D08FF007C080800DA
:100610008316AE007F08AD00AF01B00183162E082F
:100620003002031D152B2D082F020318322BFB302F
:100630008316B1000430B200FF3083163107B300D7
:10064000FF30B40032080318320FB4073308B1008A
:100650003408B20034083304031D1C2BAF0A0319FD
:10066000B00A0E2B080002340034413403342C3419
:10067000003404340034453403343034003401345D
:0C06800000340034003400340034003436
:02400E00D73F9A
:00000001FF
