:020000040000FA
:100000000000C929083083168500831285018316F4
:10001000A001A1010930FD000030FE000030FF000A
:10002000003016218316A3007F08A2000930FD00CE
:100030000030FE000030FF00003016218316A500BE
:100040007F08A4000030FD000030FE002208FF0001
:10005000230865220530FF000030AB230130FD008E
:100060000030FE0083162408FF00250865220530B5
:10007000FF000030AB238312851D60288316A00A81
:100080000319A10A8312851D60280030FD0000308D
:10009000FE0083162208FF00230865220530FF00BA
:1000A0000030AB230130FD000030FE008316240831
:1000B000FF00250865220530FF000030AB234228F1
:1000C00083162008103A031D0A282108003A031D50
:1000D0000A280030FD000030FE000930FF0000302B
:1000E00065220A30FF000030AB230130FD000030F4
:1000F000FE000930FF00003065220A30FF000030AA
:10010000AB230030FD000030FE000930FF0000305E
:1001100065220A30FF000030AB230130FD000030C3
:10012000FE000930FF00003065220A30FF00003079
:10013000AB230030FD000030FE000930FF0000302E
:1001400065220A30FF000030AB230130FD00003093
:10015000FE000930FF00003065220A30FF00003049
:10016000AB230030FD000030FE000930FF000030FE
:1001700065220A30FF000030AB230130FD00003063
:10018000FE000930FF00003065220A30FF00003019
:10019000AB230030FD000030FE000930FF000030CE
:1001A00065220A30FF000030AB230130FD00003033
:1001B000FE000930FF00003065220A30FF000030E9
:1001C000AB230030FD000030FE000930FF0000309E
:1001D00065220A30FF000030AB230130FD00003003
:1001E000FE000930FF00003065220A30FF000030B9
:1001F000AB230030FD000030FE000930FF0000306E
:1002000065220A30FF000030AB230130FD000030D2
:10021000FE000930FF00003065220A30FF00003088
:10022000AB238316A001A1010A2808008316A700AA
:100230007F08A6007E08A9007D08A80083163D0857
:100240003C043B043A04031D2B290030BB0003305F
:10025000BA00BC01BD0183163C0EF0398316AD0017
:1002600083163B0E8316AC000F39AD04AC06831623
:100270003A0E8316AB000F39AC04AB06AA0103108B
:10028000AA0DAB0DAC0DAD0D2A088316BA06831668
:100290002B088316BB0683162C088316BC06831610
:1002A0002D088316BD0603103D0C8316AB00831684
:1002B0003C0C8316AA00AC01AD012A088316BA06CD
:1002C00083162B088316BB060030BC060030BD0623
:1002D0003D0EF0398316AD0083163C0E8316AC003C
:1002E0000F39AD04AC0683163B0E8316AB000F39F5
:1002F000AC04AB0683163A0E8316AA000F39AB0482
:10030000AA060310AA0DAB0DAC0DAD0D2A0883167D
:10031000BA0683162B088316BB0683162C08831691
:10032000BC0683162D088316BD0683162608A80270
:100330002708031C270FA9020130A8070130031862
:10034000A907AA01AB012808F9002908FA00003022
:10035000FB000030FC0083163A08FD003B08FE005D
:100360003C08FF003D0800238316AB007F08AA006D
:100370007E08AD00A9007D08A800AC0026082C0767
:10038000A6002D0803182D0FA7072608FF00270831
:100390000800D630FE000330FF008030000000006F
:1003A0008A230000000083120000A1007F08A00043
:1003B000D830A2000330A300831200002008A4005C
:1003C0002108A500FF30A007031CA1032508240471
:1003D0000319612A04302207A400A501A50D2308F2
:1003E000A5072408FE002508FF008030000000005B
:1003F0008A230000000083120000A7007F08A600E7
:100400002208FE002308FF008030000000008A233D
:100410000000000083120000A900A5007F08A400CE
:10042000A80002302207A400A501A50D2308A507F6
:100430002408FE002508FF008030000000008A2309
:100440000000000083120000A500AB007F08AA0096
:10045000A400831200002608AA002708AB00FF3082
:10046000A607031CA7032B082A0403195A2A2808E5
:10047000FE002908FF008030000000007723000004
:10048000000083120000AA002408831203138400D2
:10049000831383120000251883172A08831203137D
:1004A000800083120000A80A0319A90AA40A0319EC
:1004B000A50A292A063083120000A2070318A30AFE
:1004C000DC2900000000022808008316AF007F0826
:1004D000AE007E08B1007D08B0003104031DB32AD0
:1004E00000302F02031D762A0A302E020318FF2A3D
:1004F00002308A00823083162E07031C812A831261
:100500008A0A82008C2A8F2A932A972A9B2A9F2A5A
:10051000A32AA72AAB2AAF2A83128501FF2A01301A
:1005200083128500FF2A023083128500FF2A0330E0
:1005300083128500FF2A043083128500FF2A0530CC
:1005400083128500FF2A063083128500FF2A0730B8
:1005500083128500FF2A103083128500FF2A113094
:1005600083128500FF2A83163008013A031DFF2AF3
:100570003108003A031DFF2A00302F02031DC22A52
:100580000A302E020318FF2A02308A00CE3083166A
:100590002E07031CCD2A83128A0A8200D82ADC2A5D
:1005A000E02AE42AE82AEC2AF02AF42AF82AFC2A8B
:1005B000203083128500FF2A213083128500FF2A14
:1005C000223083128500FF2A233083128500FF2A00
:1005D000243083128500FF2A253083128500FF2AEC
:1005E000263083128500FF2A273083128500FF2AD8
:1005F000303083128500FF2A3130831285000800D5
:1006000083120000AF007F08AE007E08AD007D08B9
:10061000AC007C08B3007B08B2007A08B10079080E
:10062000B000B401B5018312000033088039031D06
:100630000130B6003608031D402B0310B00DB10D7C
:10064000B20DB30D33082F02031D302B32082E02DA
:10065000031D302B31082D02031D302B30082C02D6
:1006600003183A2B031083120000B30CB20CB10C28
:10067000B00C402B83120000B50A3508B400132BD0
:100680008312000033082F02031D502B32082E0264
:10069000031D502B31082D02031D502B30082C0256
:1006A000031C622B831200003008AC023108031CCB
:1006B000310FAD023208031C320FAE023308031CA7
:1006C000330FAF02031083120000B30CB20CB10C55
:1006D000B00C3408B500B4033508031D402B2C08BA
:1006E000FD002D08FE002E08FF002F080800003A2C
:1006F00003197E2B803A0319852B00347E08840071
:1007000083137F188317000808007F088A007E087B
:1007100082000800003A0319922B803A03199C2B9F
:10072000FF0100347E08840083137F1883170008BC
:10073000FF00840A00080800000000008523FD0077
:10074000FE0FFF03FF0A000000008523FC007D0868
:10075000FF007C0808008316B3007F08B200B401D4
:10076000B501831633083502031DB82B3208340255
:100770000318D52BFB308316B6000430B700FF30CA
:1007800083163607B800FF30B90037080318370F53
:10079000B9073808B6003908B70039083804031D0E
:1007A000BF2BB40A0319B50AB12B08000234003478
:1007B000E4340334BA34003404340034E834033409
:1007C000BE340034013400340034003400340034CA
:0207D0000034F3
:02400E00D73F9A
:00000001FF
