:020000040000FA
:10000000000093290830831685008312850183162A
:10001000A001A1010930FF000030E6208316A200F4
:100020000930FF000030E6208316A3000030FE00F8
:100030000030FF0022082F220530FF0000306D2322
:100040000130FE000030FF00831623082F22053008
:10005000FF0000306D238312851D4C288316A00AF3
:100060000319A10A8312851D4C280030FE000030C0
:10007000FF00831622082F220530FF0000306D2379
:100080000130FE000030FF00831623082F220530C8
:10009000FF0000306D23322883162008103A031D1C
:1000A0000A282108003A031D0A280030FE0000300B
:1000B000FF0009302F220A30FF0000306D2301308D
:1000C000FE000030FF0009302F220A30FF00003010
:1000D0006D230030FE000030FF0009302F220A306F
:1000E000FF0000306D230130FE000030FF000930BA
:1000F0002F220A30FF0000306D230030FE00003058
:10010000FF0009302F220A30FF0000306D2301303C
:10011000FE000030FF0009302F220A30FF000030BF
:100120006D230030FE000030FF0009302F220A301E
:10013000FF0000306D230130FE000030FF00093069
:100140002F220A30FF0000306D230030FE00003007
:10015000FF0009302F220A30FF0000306D230130EC
:10016000FE000030FF0009302F220A30FF0000306F
:100170006D230030FE000030FF0009302F220A30CE
:10018000FF0000306D230130FE000030FF00093019
:100190002F220A30FF0000306D230030FE000030B7
:1001A000FF0009302F220A30FF0000306D2301309C
:1001B000FE000030FF0009302F220A30FF0000301F
:1001C0006D238316A001A1010A2808008316A4004C
:1001D0007F08A50083122F082E042D042C04031D74
:1001E000F7280030AD000330AC00AE01AF01831240
:1001F0002E0EF0398316A90083122D0E8316A80047
:100200000F39A904A80683122C0E8316A7000F39F4
:10021000A804A706A6010310A60DA70DA80DA90DF9
:1002200026088312AC06831627088312AD068316B0
:1002300028088312AE06831629088312AF0603101E
:100240002F0C8316A70083122E0C8316A600A8017C
:10025000A90126088312AC06831627088312AD066F
:100260000030AE060030AF062F0EF0398316A9001D
:1002700083122E0E8316A8000F39A904A806831234
:100280002D0E8316A7000F39A804A70683122C0E83
:100290008316A6000F39A704A6060310A60DA70D06
:1002A000A80DA90D26088312AC0683162708831211
:1002B000AD06831628088312AE068316290883121A
:1002C000AF0683162508A600A701A8012408A500EB
:1002D000A6020030031C280FA7020130A607A501C3
:1002E000A50D2708A507A701A8012608F9002508DC
:1002F000FA000030FB000030FC0083122C08FD00E7
:100300002D08FE002E08FF002F08C2228316A80029
:100310007F08A7007E08A6007D08A500A900240884
:100320002907A40008009830FE000330FF00803049
:10033000000000004C230000000083120000A10018
:100340007F08A0009A30A2000330A30083120000AF
:100350002008A4002108A500FF30A007031CA1036A
:100360002508240403192B2A04302207A400A50120
:10037000A50D2308A5072408FE002508FF008030EE
:10038000000000004C230000000083120000A700C2
:100390007F08A6002208FE002308FF00803000002E
:1003A00000004C230000000083120000A900A500FB
:1003B0007F08A400A80002302207A400A501A50D13
:1003C0002308A5072408FE002508FF008030000050
:1003D00000004C230000000083120000A500AB00C9
:1003E0007F08AA00A400831200002608AA0027089C
:1003F000AB00FF30A607031CA7032B082A04031930
:10040000242A2808FE002908FF0080300000000090
:1004100039230000000083120000AA002408831280
:1004200003138400831383120000251883172A08FE
:1004300083120313800083120000A80A0319A90A7B
:10044000A40A0319A50AF329063083120000A207A3
:100450000318A30AA629000000000228080083163A
:10046000AA007F08AC007E08AB002C04031D782A8C
:100470000A302A020318C12A023083128A00473048
:1004800083162A07031C462A83128A0A8200512AED
:10049000542A582A5C2A602A642A682A6C2A702AFC
:1004A000742A83128501C12A013083128500C12A72
:1004B000023083128500C12A033083128500C12ACD
:1004C000043083128500C12A053083128500C12AB9
:1004D000063083128500C12A073083128500C12AA5
:1004E000103083128500C12A113083128500C12A81
:1004F00083162B08013A031DC12A2C08003A031D5C
:10050000C12A0A302A020318C12A023083128A0043
:10051000903083162A07031C8F2A83128A0A8200CE
:100520009A2A9E2AA22AA62AAA2AAE2AB22AB62A3B
:10053000BA2ABE2A203083128500C12A21308312B4
:100540008500C12A223083128500C12A23308312FC
:100550008500C12A243083128500C12A25308312E8
:100560008500C12A263083128500C12A27308312D4
:100570008500C12A303083128500C12A31308312B0
:100580008500080083160000B8007F08B7007E08C9
:10059000B6007D08B5007C08BC007B08BB007A086B
:1005A000BA007908B900BD01BE01831600003C08FD
:1005B0008039031D0130BF003F08031D022B0310CB
:1005C000B90DBA0DBB0DBC0D3C083802031DF22A53
:1005D0003B083702031DF22A3A083602031DF22AAD
:1005E000390835020318FC2A031083160000BC0CDE
:1005F000BB0CBA0CB90C022B83160000BE0A3E08D5
:10060000BD00D52A831600003C083802031D122BBA
:100610003B083702031D122B3A083602031D122B2A
:1006200039083502031C242B831600003908B50253
:100630003A08031C3A0FB6023B08031C3B0FB702F3
:100640003C08031C3C0FB802031083160000BC0CCE
:10065000BB0CBA0CB90C3D08BE00BD033E08031D1F
:10066000022B3508FD003608FE003708FF00380869
:100670000800003A0319402B803A0319472B003435
:100680007E08840083137F188317000808007F0802
:100690008A007E0882000800003A0319542B803A31
:1006A00003195E2BFF0100347E08840083137F183A
:1006B00083170008FF00840A0008080000000000FB
:1006C0004723FD00FE0FFF03FF0A00000000472341
:1006D000FC007D08FF007C0808008316AE007F0840
:1006E000AD00AF01B00183162E083002031D7A2B36
:1006F0002D082F020318972BFB308316B10004300E
:10070000B200FF3083163107B300FF30B400320867
:100710000318320FB4073308B1003408B2003408AC
:100720003304031D812BAF0A0319B00A732B080091
:1007300002340034A63403342C340034043400343E
:10074000AA3403343034003401340034003400342B
:0607500000340034003407
:02400E00D73F9A
:00000001FF
