:020000040000FA
:1000000000007F290830831685008312850183163E
:10001000A001A1010930FF000030D2208316A20008
:100020000930FF000030D2208316A3000030FE000C
:100030000030FF0022081B220530FF00003059234A
:100040000130FE000030FF00831623081B2205301C
:10005000FF00003059238312851D4C288316A00A07
:100060000319A10A8312851D4C280030FE000030C0
:10007000FF00831622081B220530FF0000305923A1
:100080000130FE000030FF00831623081B220530DC
:10009000FF0000305923322883162008103A031D30
:1000A0000A282108003A031D0A280030FE0000300B
:1000B000FF0009301B220F30FF00003059230130B0
:1000C000FE000030FF0009301B220F30FF0000301F
:1000D00059230030FE000030FF0009301B220F3092
:1000E000FF00003059230130FE000030FF000930CE
:1000F0001B220F30FF00003059230030FE0000307B
:10010000FF0009301B220F30FF000030592301305F
:10011000FE000030FF0009301B220F30FF000030CE
:1001200059230030FE000030FF0009301B220F3041
:10013000FF00003059230130FE000030FF0009307D
:100140001B220F30FF00003059230030FE0000302A
:10015000FF0009301B220F30FF000030592301300F
:10016000FE000030FF0009301B220F30FF0000307E
:1001700059230030FE000030FF0009301B220F30F1
:10018000FF00003059230130FE000030FF0009302D
:100190001B220F30FF00003059238316A001A1015C
:1001A0000A2808008316A4007F08A50083122F08E0
:1001B0002E042D042C04031DE3280030AD00033071
:1001C000AC00AE01AF0183122E0EF0398316A900E8
:1001D00083122D0E8316A8000F39A904A8068312D6
:1001E0002C0E8316A7000F39A804A706A60103103A
:1001F000A60DA70DA80DA90D26088312AC0683161F
:1002000027088312AD06831628088312AE068316CC
:1002100029088312AF0603102F0C8316A700831240
:100220002E0C8316A600A801A90126088312AC068D
:10023000831627088312AD060030AE060030AF06E5
:100240002F0EF0398316A90083122E0E8316A800F4
:100250000F39A904A80683122D0E8316A7000F39A3
:10026000A804A70683122C0E8316A6000F39A70434
:10027000A6060310A60DA70DA80DA90D260883122A
:10028000AC06831627088312AD068316280883124E
:10029000AE06831629088312AF0683162508A6002A
:1002A000A701A8012408A500A6020030031C280FFE
:1002B000A7020130A607A501A50D2708A507A701DC
:1002C000A8012608F9002508FA000030FB000030DC
:1002D000FC0083122C08FD002D08FE002E08FF00F4
:1002E0002F08AE228316A8007F08A7007E08A6006C
:1002F0007D08A500A90024082907A400080084306F
:10030000FE000330FF0080300000000038230000B2
:10031000000083120000A1007F08A0008630A20028
:100320000330A300831200002008A4002108A500C8
:10033000FF30A007031CA103250824040319172A72
:1003400004302207A400A501A50D2308A507240851
:10035000FE002508FF008030000000003823000068
:10036000000083120000A7007F08A6002208FE00FC
:100370002308FF0080300000000038230000000048
:1003800083120000A900A5007F08A400A800023085
:100390002207A400A501A50D2308A5072408FE0037
:1003A0002508FF0080300000000038230000000016
:1003B00083120000A500AB007F08AA00A4008312EE
:1003C00000002608AA002708AB00FF30A607031C80
:1003D000A7032B082A040319102A2808FE0029085D
:1003E000FF00803000000000252300000000831281
:1003F0000000AA00240883120313840083138312CD
:100400000000251883172A08831203138000831223
:100410000000A80A0319A90AA40A0319A50ADF29DA
:10042000063083120000A2070318A30A92290000D5
:100430000000022808008316AA007F08AC007E088E
:10044000AB002C04031D642A0A302A020318AD2ACB
:10045000023083128A00333083162A07031C322AA3
:1004600083128A0A82003D2A402A442A482A4C2ABA
:10047000502A542A582A5C2A602A83128501AD2A00
:10048000013083128500AD2A023083128500AD2A27
:10049000033083128500AD2A043083128500AD2A13
:1004A000053083128500AD2A063083128500AD2AFF
:1004B000073083128500AD2A103083128500AD2AE3
:1004C000113083128500AD2A83162B08013A031DD3
:1004D000AD2A2C08003A031DAD2A0A302A0203185F
:1004E000AD2A023083128A007C3083162A07031C4F
:1004F0007B2A83128A0A8200862A8A2A8E2A922AD4
:10050000962A9A2A9E2AA22AA62AAA2A203083124A
:100510008500AD2A213083128500AD2A2230831256
:100520008500AD2A233083128500AD2A2430831242
:100530008500AD2A253083128500AD2A263083122E
:100540008500AD2A273083128500AD2A3030831212
:100550008500AD2A31308312850008008316000023
:10056000B8007F08B7007E08B6007D08B5007C089B
:10057000BC007B08BB007A08BA007908B900BD014D
:10058000BE01831600003C088039031D0130BF0006
:100590003F08031DEE2A0310B90DBA0DBB0DBC0DAB
:1005A0003C083802031DDE2A3B083702031DDE2A01
:1005B0003A083602031DDE2A390835020318E82AF4
:1005C000031083160000BC0CBB0CBA0CB90CEE2A4D
:1005D00083160000BE0A3E08BD00C12A8316000033
:1005E0003C083802031DFE2A3B083702031DFE2A81
:1005F0003A083602031DFE2A39083502031C102B67
:10060000831600003908B5023A08031C3A0FB602F7
:100610003B08031C3B0FB7023C08031C3C0FB8020D
:10062000031083160000BC0CBB0CBA0CB90C3D08BF
:10063000BE00BD033E08031DEE2A3508FD00360846
:10064000FE003708FF0038080800003A03192C2B79
:10065000803A0319332B00347E08840083137F18FB
:100660008317000808007F088A007E0882000800BF
:10067000003A0319402B803A03194A2BFF0100343A
:100680007E08840083137F1883170008FF00840A04
:1006900000080800000000003323FD00FE0FFF03E8
:1006A000FF0A000000003323FC007D08FF007C08E7
:1006B00008008316AE007F08AD00AF01B0018316BD
:1006C0002E083002031D662B2D082F020318832BE2
:1006D000FB308316B1000430B200FF3083163107BF
:1006E000B300FF30B40032080318320FB4073308E8
:1006F000B1003408B20034083304031D6D2BAF0A77
:100700000319B00A5F2B080002340034923403341A
:100710002C34003404340034963403343034003440
:0E07200001340034003400340034003400345E
:02400E00D73F9A
:00000001FF
