:020000040000FA
:100000000000A0298316A8007F08A7007E08A90089
:100010007D082904031D7F2828082704031D1328B1
:1000200083128501F22883162708013A031D202830
:100030002808003A031D2028013083128500F22889
:1000400083162708023A031D2D282808003A031DAD
:100050002D28023083128500F22883162708033AE0
:10006000031D3A282808003A031D3A28033083125A
:100070008500F22883162708043A031D472828081C
:10008000003A031D4728043083128500F2288316A6
:100090002708053A031D54282808003A031D542850
:1000A000053083128500F22883162708063A031DBF
:1000B00061282808003A031D612806308312850054
:1000C000F22883162708073A031D6E282808003AED
:1000D000031D6E28073083128500F2288316270837
:1000E000083A031D7B282808003A031D7B2810309E
:1000F00083128500F228113083128500F2288316BE
:1001000028082704031D872883128501F2288316F7
:100110002708013A031D94282808003A031D942853
:10012000013083128500F22883162708023A031D46
:10013000A1282808003A031DA12802308312850057
:10014000F22883162708033A031DAE282808003A30
:10015000031DAE28033083128500F228831627087A
:10016000043A031DBB282808003A031DBB280430AD
:1001700083128500F22883162708053A031DC82834
:100180002808003A031DC828053083128500F2288C
:1001900083162708063A031DD5282808003A031DB0
:1001A000D528063083128500F22883162708073ADF
:1001B000031DE2282808003A031DE22807308312B5
:1001C0008500F22883162708083A031DEF2828081F
:1001D000003A031DEF28103083128500F2281130F9
:1001E0008312850008008316A1007F08A2008312F5
:1001F0002E082D042C042B04031D04290030AC0010
:100200000330AB00AD01AE0183122D0EF039831621
:10021000A60083122C0E8316A5000F39A604A5068E
:1002200083122B0E8316A4000F39A504A406A30184
:100230000310A30DA40DA50DA60D23088312AB0674
:10024000831624088312AC06831625088312AD0694
:10025000831626088312AE0603102E0C8316A40004
:1002600083122D0C8316A300A501A6012308831277
:10027000AB06831624088312AC060030AD060030AE
:10028000AE062E0EF0398316A60083122D0E8316AD
:10029000A5000F39A604A50683122C0E8316A40010
:1002A0000F39A504A40683122B0E8316A3000F3961
:1002B000A404A3060310A30DA40DA50DA60D2308E9
:1002C0008312AB06831624088312AC068316250816
:1002D0008312AD06831626088312AE068316220803
:1002E000A300A401A5012108A200A3020030031C61
:1002F000250FA4020130A307A201A20D2408A20722
:10030000A401A5012308F9002208FA000030FB002F
:100310000030FC0083122B08FD002C08FE002D0885
:10032000FF002E083C228316A5007F08A4007E084B
:10033000A3007D08A200A60021082607A10008004E
:100340003E30FE000330FF00803000000000C62277
:100350000000000083160000B3007F08B2004030A8
:10036000B4000330B500831600003208B60033082D
:10037000B700FF30B207031CB30337083604031974
:10038000382A04303407B600B701B70D3508B7076F
:100390003608FE003708FF00803000000000C6224B
:1003A0000000000083160000B9007F08B800340880
:1003B000FE003508FF00803000000000C62200006B
:1003C000000083160000BB00B7007F08B600BA002B
:1003D00002303407B600B701B70D3508B707360845
:1003E000FE003708FF00803000000000C622000039
:1003F000000083160000B700BD007F08BC00B600F7
:10040000831600003808BC003908BD00FF30B8076B
:10041000031CB9033D083C040319312A3A08FE00C5
:100420003B08FF00803000000000B3220000000005
:1004300083160000BC003608831203138400831364
:1004400083160000371883173C08831203138000BB
:1004500083160000BA0A0319BB0AB60A0319B70AC1
:10046000002A063083160000B4070318B50AB32922
:1004700000000000E72A080083120000A3007F08A4
:10048000A2007E08A1007D08A0007C08A7007B08D0
:10049000A6007A08A5007908A400A801A901831282
:1004A000000027088039031D0130AA002A08031D17
:1004B0007C2A0310A40DA50DA60DA70D2708230265
:1004C000031D6C2A26082202031D6C2A250821021E
:1004D000031D6C2A240820020318762A03108312B5
:1004E0000000A70CA60CA50CA40C7C2A831200000B
:1004F000A90A2908A8004F2A83120000270823020E
:10050000031D8C2A26082202031D8C2A250821029D
:10051000031D8C2A24082002031C9E2A831200003B
:100520002408A0022508031C250FA1022608031C8D
:10053000260FA2022708031C270FA3020310831211
:100540000000A70CA60CA50CA40C2808A900A80361
:100550002908031D7C2A2008FD002108FE0022082E
:10056000FF0023080800003A0319BA2A803A031949
:10057000C12A00347E08840083137F188317000883
:1005800008007F088A007E0882000800003A0319EC
:10059000CE2A803A0319D82AFF0100347E0884004D
:1005A00083137F1883170008FF00840A00080800DF
:1005B00000000000C122FD00FE0FFF03FF0A000043
:1005C0000000C122FC007D08FF007C080800083004
:1005D00083168500831285010930FF000030F32067
:1005E0000930FF000030F320831205106430FF0053
:1005F000003013238316A0018312051C012B8316E0
:10060000A00A83162009A000200C0318092B8312CE
:100610000510031C0D2B831205146430FF000030FD
:100620001323EC2A08008316AB007F08AA00AC0154
:10063000AD0183162B082D02031D202B2A082C0246
:1006400003183D2BFB308316AE000430AF00FF30A3
:1006500083162E07B000FF30B1002F0803182F0FAC
:10066000B1073008AE003108AF0031083004031D77
:10067000272BAC0A0319AD0A192B080002340034E9
:100680004C3403342B3400340434003450340334F9
:10069000BE340034013400340034003400340034FB
:0206A000003424
:02400E00D73F9A
:00000001FF
